:0600000002106802006B13
:03000B0002006B85
:0300130002006B7D
:03001B0002006B75
:0300230002006B6D
:03002B0002006B65
:0300330002006B5D
:03003B0002006B55
:0300430002006B4D
:03004B0002006B45
:0300530002006B3D
:03005B0002006B35
:0300630002006B2D
:01006B003262
:2000800002006B0002006B0002006B0002006B0002006B0002006B0002006B0002006B00F8
:1800A00002006B0002006B0002006B0002006B0002006B0002006B00BA
:2001000002006B0002006B0002006B0002006B0002006B0002006B0002006B0002006B0077
:2001200002006B0002006B0002006B0002006B0002006B0002006B0002006B0002006B0057
:2001400002006B0002006B0002006B0002006B0002006B0002006B0002006B0002006B0037
:2001600002006B0002006B0002006B0002006B0002006B0002006B0002006B0002006B0017
:03107E00021084D9
:0B106800E4F50AF50BF50CF50DF50E94
:03109700021081C3
:03108100020180E9
:2001800012099712094612060B1205D0C2AF120F92120B35D2EAD2AF120A4202059890E61C
:2001A0008BE4F090E6A0E0FF20E1F82290E6B8E0FFBFC002800302032790E6B9E0FFBF8046
:2001C000028017BF90028052BFA202806ABFA3028065BFA902805A02032390E6BCE0FF60F0
:2001E0001CBF013290E6C1E0235401FF90E740F090E68AE4F090E68B04F002058190E6C134
:20020000E0235401FF90E740F090E68AE4F090E68B04F0020581758200221206AAAF8290F3
:20022000E740EFF090E68AE4F090E68B04F002058175080143090190E6BAE0FF8F0F75106A
:200240000090E6BBE0FCE4420FEC421090E6BEE0FD8D1175120090E6BFE0FAE4FB4211EABD
:200260004212E5114512700302058190E6A0E0FB20E1F8C3E5119440E51294005006AA11CF
:20028000AB1280047A407B0090E6B9E0F9B9A337E4F513F514C3E5139AE5149B5063E513C4
:2002A0002440FCE51434E7FDA80FA910E51328F582E51439F583E0F98C828D83F00513E439
:2002C000B513D2051480CE7C007D00C3EC9AED9B5014EC2440F582ED34E7F58374CDF00C6B
:2002E000BC00E80D80E58A1B7C407DE78C1C8D1D850F82851083C003C002120780D002D0E3
:200300000390E68AE4F090E68BEAF0EA250FF50FEB3510F510E511C39AF511E5129BF512E2
:200320000202627582002290E6B8E0FDBD4002800302057D90E6B9E0FDBD01028021BD10F3
:2003400003020401BD2003020413BDA203020433BDA303020433BDA90302042D02057990B7
:20036000E6BAE0606B90E6C67480F090E6C774EDF090E6C8E4F090E6C9F090E6CAF090E69D
:20038000CBF090E6CC7403F090E6CD14F090E60CE4F00090E6F574FFF00075BB000090E6E8
:2003A000C774EDF00090E6047480F00090E6047402F00090E6047406F00090E604E4F000B5
:2003C00075BB0600750CE9750D0F5380FE02058175BB000090E6F574FFF00090E604748027
:2003E000F00090E6047402F00090E6047406F00090E604E4F000E4F50CF50D438001020549
:200400008190E6BAE0600612062102058112062802058190E68AE4F090E68BF090E6A0E0A1
:20042000FD20E1F890E74012065302058175080143090190E6BAE0FD8D0F75100090E6BBF2
:20044000E0FCE4420FEC421090E6BEE0FD8D1175120090E6BFE0FDE4FC4211ED4212E50E9E
:2004600070061208AD85820EE5114512700302058190E68AE4F090E68BF090E6A0E0FD200A
:20048000E1F890E68BE0FA7B0090E6B9E0FDBDA33AE4F513F514C3E5139AE5149B40030264
:2004A0000561A80FA910E51328F8E51439F9E5132440F582E51434E7F583E0FD88828983D1
:2004C000F00513E4B513CF051480CB7C007D00C3EC9AED9B4003020561850E157401B50EE0
:2004E000028047EC250FF8ED3510F9AE0E7F001EBEFF011FEE5200EF5201E8496011AE0FD9
:200500008C07EF2EFEE50E145ED3950EF4F515EAC39CFEEB9DFFA8157900C3EE98EF99502F
:20052000098A078C06EFC39EF515EC250FF582ED3510F583EC2440F518ED34E7F5198515E7
:200540001AC005C004C003C0021206B5D002D003D004D005A9157F00E92CFCEF3DFD0204DB
:20056000CFEA250FF50FEB3510F510E511C39AF511E5129BF51202046875820022758200E5
:200580002275820122C0E0E50C450D6006750A01750B00C2CFD0E03290E6C67480F090E6CD
:2005A000C774EDF090E6C8E4F090E6C9F090E6CAF090E6CBF090E6CC7403F090E6CD14F091
:2005C00090E60CE4F0003000FD120BC9C20080F6750E0090E678E05410C4540FFF74504F8C
:0905E000F50974015509F5082222
:20E0000012010002FFFFFF4081173C0B0201010206010A060002FFFFFF4001000902320035
:20E02000030100C0000904000000FFFFFF030904010001FFFFFF04070502020002000904E0
:20E04000020001FFFFFF050705860200020012010002FFFFFF4081173C0B020101020001ED
:20E060000A060002FFFFFF40010009021200010100C0000904000000FFFFFF03078CE0925F
:0BE08000E0AEE0DAE0FCE018E132E185
:20E08C000603000009041C0347004E004D00410058002000500072006F006A006500630041
:20E0AC0074002C034D00410058003200370036003900200047004E00530053002000460032
:20E0CC0072006F006E00740065006E006400220343006F006D006D0061006E006400200036
:20E0EC00260020005300740061007400750073001C035400720061006E0073006D0069004D
:20E10C007400200050006100740068001A0352006500630065006900760065002000500082
:12E12C006100740068000C0331003000300030003000A4
:2005E9007880E84400600C7901901800E4F0A3D8FCD9FAD083D082F6D8FDC082C083758236
:020609000022CD
:05107300E4F516F5177D
:20060B0043808343B28B75B50000438008005380F70075820022438002758200225380FD83
:20062B0075820022AF827E80EE5F600543800180035380FE00438008005380F7004380083D
:20064B0000EEC313FE70E122AE82AF835380F70053807F00007C007D00EC2EF582ED3FF531
:20066B0083E0F582C007C006C005C00412062FD004D005D006D0070CBC00010DC3EC9404C5
:20068B00ED6480948040D24380800000438001438008005380F70043800800758200228553
:0A06AB00B082228516828517832293
:2006B500AE82AF83C007C00612077712074A120890E582D006D00760047D018072E5086064
:2006D5001A8F0490E679ECF0C007C006120890E582D006D00760047D01805490E679EEF0BF
:2006F500120890E58260047D018044AE18AF197C00C3EC951A502A8E828F83E0FBA3AE827C
:20071500AF8390E679EBF0C007C006C00412087BE582D004D006D00760047D0180110C80FB
:20073500D090E678E0FF74404FF01207597D0053B27F8D822290E6787480F0E509250990F2
:20075500E679F02212077712074A12087B90E678E0FF74404FF012077790E678E0FF30E15D
:20077500E62290E678E0FF20E6F822AE82AF83C007C00612077712074A120890E582D006A6
:20079500D007600475820122E508601A8F0590E679EDF0C007C006120890E582D006D007DD
:2007B50060047582012290E679EEF0120890E58260047582012290E6787480F0E50925095C
:2007D500FF90E67974014FF012087BE58260047582012290E679E012087BE58260047582C2
:2007F50001227F007E00AC1B7D001CBCFF011D8E027B00C3EA9CEB64808DF063F08095F093
:200815005025EE251CFCE4351DFD90E679E08C828D83F0C00612087BE582D0066004758220
:2008350001220E8E0780BF90E6787420F0C00712087BE582D007600475820122EF251CFFE5
:20085500E4351DFE90E679E08F828E83F012087BE58260047582012290E6787440F090E6EC
:2008750079E07582002290E678E0FFFE30E0F7EE30E204758201227582002290E678E0FF1B
:20089500FE30E0F7EE30E20475820122EE20E1047582012275820022E5087004758201227F
:2008B500751C40751D18751B409000001207807F00EF2400F582E43418F583EFF00FBF4011
:2008D5000040EE751800751918751A409000001206B57F00EF2400F582E43418F583EFF4E2
:2008F500FEF00FBF400040EC751B40751C00751D18900000120780901800E0FF30E0047E6E
:2009150001800663073F0F8F067F008F047D007518407519188E1A8C828D83C007C0061287
:1109350006B5D006D007EE2FFFBF400040DD8E8222DF
:2009460090E6F574FFF00090113EE49390E6F3F090113FE49390E6C3F0901140E49390E6C6
:20096600C1F0901141E49390E6C2F0901143E49390E6C0F07F008F057EE4EF90109A93FC91
:110986008D828E83F00FBF800040EB90E6C6E4F022A5
:20109A00010101010101010700000000000000000000000000000000000000000000003FE9
:2010BA00010101010101010700000000000000000000000000000000000000000000003FC9
:2010DA00380101010101010703020202020202000000000000000000360000000000003F2D
:2010FA00380101010101010703020202020202000000000000000000360000000000003F0D
:20111A0000000000000000000000000000000000000080ED0000000003020080EE000000D5
:0B113A0000030200A0000000AE4E0009
:2009970090E6007410F0758E0090E6017402F00090E61074A0F00090E61174E0F00090E6AB
:2009B70012E4F00090E613E4F00090E61474E0F00090E615E4F00090E6047480F00090E6DC
:2009D700047406F00090E604E4F00090E618E4F090E619F090E61A740CF090E61BE4F000FE
:2009F70090E68AE4F00090E68DE4F00090E6E27402F00090E6E37401F00090E6247402F0B9
:080A17000090E625E4F0002246
:200A1F0090E6A0E0FF74014FF022AF8274805FC423541FFE740F5F90E6834EF0E0FF742084
:200A3F004FF02290E680E0FF740A4FF09000FA12105090E65D74FFF090E65FF05391EF904A
:090A5F00E680E0FF74F75FF0226D
:06109100E478FFF6D8FD33
:0610780075220075230043
:200A680090E680E0FF30E7197524007525E07526127527E075281C7529E0752A6A752BE06D
:200A88002275244E7525E07526607527E075286A7529E0752A1C752BE0225391EF75A10089
:200AA800D20032C021C0E0C0F0C082C083C007C006C005C004C003C002C001C000C0D07553
:200AC800D0005391EF75A100120A68D0D0D000D001D002D003D004D005D006D007D083D072
:200AE80082D0F0D0E0D02132C021C0E0C0F0C082C083C007C006C005C004C003C002C001C7
:200B0800C000C0D075D0005391EF75A100120A68D0D0D000D001D002D003D004D005D00666
:200B2800D007D083D082D0F0D0E0D02132120A68751EA2751F0A758200120EED751EAB7590
:200B48001F0A758210120EED751EF0751F0A758214120EED90E65C7431F022E582547FFF55
:200B680024F7500475820022BF010475820122530701E4BF000104F58222AF82BF010C90DE
:200B8800E6A1E0FE7D008E828D8322BF810C90E6A2E0FE7D008E828D832253077FEF700CE4
:200BA80090E6A0E0FE7D008E828D832290E6A3E0FE7D00EFC3137C002EFEEC3D8E82F583E8
:200BC80022C20090E6B8E0FF5307608F06BE00028028BF2002800DBF4002800EBF600280C7
:200BE80003020E81120A1F020E811201ACE5826003020E81120A1F020E8190E6B8E0FF5347
:200C08000780BF80028003020D8590E6B9E0FFBF0003020D01BF06028033BF08028008BF83
:200C28000A028016020D7F90E740E522F090E68AE4F090E68B04F0020E8190E740E523F0C5
:200C480090E68AE4F090E68B04F0020E8190E6BBE0FFBF01028017BF02028038BF0302800A
:200C680059BF0602801BBF0702803C020CFBAE24AF2590E6B3EFF07F0090E6B4EEF0020EDF
:200C880081AE26AF2790E6B3EFF07F0090E6B4EEF0020E81AE28AF2990E6B3EFF07F00903C
:200CA800E6B4EEF0020E81AE2AAF2B90E6B3EFF07F0090E6B4EEF0020E8190E6BAE0FF90B2
:200CC800E07CE0FEC3EF9E4006120A1F020E8190E6BAE075F002A4247DF58274E035F0F5CF
:200CE80083E0FEA3E090E6B3F07F0090E6B4EEF0020E81120A1F020E8190E6B8E0FF5307A4
:200D08001F8F06BE0002800ABE0102801CBF0264802C90E7407401F090E741E4F090E68AF7
:200D2800F090E68B7402F0804E90E740E4F090E741F090E68AF090E68B7402F0803990E6CD
:200D4800BCE0F582120B63E582602490E6BCE0F582120B82E0FF53070190E740EFF090E79E
:200D680041E4F090E68AF090E68B7402F08008120A1F8003120A1F120A1F020E8190E6B983
:200D8800E0FF24F45003020E7EEF240A83F582EF241083F583E4737EC946277E7E7E7E7EBD
:200DA800B77EC00E0D0E0E0E0E0E0E0E0D0E0D90E6BAE0F522020E8190E6BAE0F523020EA1
:200DC8008190E6B8E0FF53071F8F06BE00028005BF0247800A90E6BAE0120A1F020E81902C
:200DE800E6BAE0703090E6BCE0F582120B63E582602390E6BCE0F582120B82AE82AF83E06E
:200E0800FD5305FE8E828F83EDF090E6BCE0F582120A298064120A1F805F120A1F805A9007
:200E2800E6B8E0FF53071FBF004F90E6BAE0FFBF01028005BF02028040120A1F803B90E661
:200E4800BAE0FF702C90E6BCE0F582120B63E582601A90E6BCE0F582120B82AE82AF83E001
:200E6800FD4305018E828F83EDF0800D120A1F8008120A1F8003120A1F90E6A0E0FF7480F3
:030E88004FF02206
:200E8B00AF82BF03004005EF249C500122740F5FFEBE03028007740F5FFEBE0B44A2AF92F3
:200EAB0002C2AFEF2400F582E43400F5837402F07E00142FFCE43EFDEC2400F582ED3400B0
:200ECB00F583E51FFDF074022FFFE43EFEEF2400F582EE3400F583AE1E7F00EEF0A2029257
:200EEB00AF22E582FF2483500122EF5403600122A2AF9203C2AFEF2400F582E43401F5835B
:200F0B007402F07E00142FFCE43EFDEC2400F582ED3401F583E51FF074022FFFE43EFEEFBC
:200F2B002400F582EE3401F583AE1EEEF0A20392AF22AF82BF80004005EF244B500122EF49
:200F4B005403600122A2AF9204C2AFEF2480F582E43400F5837402F07E00142FFCE43EFD78
:200F6B00EC2480F582ED3400F583E51FF074022FFFE43EFEEF2480F582EE3400F583AE1E9E
:200F8B00EEF0A20492AF22C2E8C2EA751E00751F01758243120E8B751E80751F007582530B
:200FAB00120E8B0090E650E4F00090E652E4F00090E654E4F00090E656E4F00090E65174CC
:200FCB00FFF00090E65374FFF00090E65574FFF00090E65774FFF00090E658E4F090E6591C
:200FEB0014F090E65AE4F090E65B14F090E65CE4F090E65D14F090E65EE4F090E65F14F06B
:20100B000090E660E4F00090E66174FFF090E662E4F090E66314F090E665E4F090E6687457
:0D102B000BF05391EF5391BFD2E8D2EA22AF
:2010380022AF82121038EF14FEFF70F72290FB50A3E582458370F922AE82AF83121045EE73
:1010580024FFFCEF34FFFD8C068D07EC4D70ED226C
:0D10840075812B1205E9E5826003021081E1
:00000001FF
